{
    "address": "0xA360aeb1C0915E1ebb5F83c533d94ae2EB827Ea8",
    "abi": [
        {
            "inputs": [],
            "stateMutability": "nonpayable",
            "type": "constructor"
        },
        {
            "anonymous": false,
            "inputs": [
                {
                    "indexed": true,
                    "internalType": "address",
                    "name": "owner",
                    "type": "address"
                },
                {
                    "indexed": true,
                    "internalType": "address",
                    "name": "approved",
                    "type": "address"
                },
                {
                    "indexed": true,
                    "internalType": "uint256",
                    "name": "tokenId",
                    "type": "uint256"
                }
            ],
            "name": "Approval",
            "type": "event"
        },
        {
            "anonymous": false,
            "inputs": [
                {
                    "indexed": true,
                    "internalType": "address",
                    "name": "owner",
                    "type": "address"
                },
                {
                    "indexed": true,
                    "internalType": "address",
                    "name": "operator",
                    "type": "address"
                },
                {
                    "indexed": false,
                    "internalType": "bool",
                    "name": "approved",
                    "type": "bool"
                }
            ],
            "name": "ApprovalForAll",
            "type": "event"
        },
        {
            "anonymous": false,
            "inputs": [
                {
                    "indexed": true,
                    "internalType": "address",
                    "name": "previousOwner",
                    "type": "address"
                },
                {
                    "indexed": true,
                    "internalType": "address",
                    "name": "newOwner",
                    "type": "address"
                }
            ],
            "name": "OwnershipTransferred",
            "type": "event"
        },
        {
            "anonymous": false,
            "inputs": [
                {
                    "indexed": true,
                    "internalType": "address",
                    "name": "from",
                    "type": "address"
                },
                {
                    "indexed": true,
                    "internalType": "address",
                    "name": "to",
                    "type": "address"
                },
                {
                    "indexed": true,
                    "internalType": "uint256",
                    "name": "tokenId",
                    "type": "uint256"
                }
            ],
            "name": "Transfer",
            "type": "event"
        },
        {
            "inputs": [
                {
                    "internalType": "address",
                    "name": "to",
                    "type": "address"
                },
                {
                    "internalType": "uint256",
                    "name": "tokenId",
                    "type": "uint256"
                }
            ],
            "name": "approve",
            "outputs": [],
            "stateMutability": "nonpayable",
            "type": "function"
        },
        {
            "inputs": [
                {
                    "internalType": "address",
                    "name": "owner",
                    "type": "address"
                }
            ],
            "name": "balanceOf",
            "outputs": [
                {
                    "internalType": "uint256",
                    "name": "",
                    "type": "uint256"
                }
            ],
            "stateMutability": "view",
            "type": "function"
        },
        {
            "inputs": [],
            "name": "getAllTokens",
            "outputs": [
                {
                    "components": [
                        {
                            "internalType": "uint256",
                            "name": "id",
                            "type": "uint256"
                        },
                        {
                            "internalType": "string",
                            "name": "uri",
                            "type": "string"
                        }
                    ],
                    "internalType": "struct CreativeNFTv2.RenderToken[]",
                    "name": "",
                    "type": "tuple[]"
                }
            ],
            "stateMutability": "view",
            "type": "function"
        },
        {
            "inputs": [
                {
                    "internalType": "uint256",
                    "name": "tokenId",
                    "type": "uint256"
                }
            ],
            "name": "getApproved",
            "outputs": [
                {
                    "internalType": "address",
                    "name": "",
                    "type": "address"
                }
            ],
            "stateMutability": "view",
            "type": "function"
        },
        {
            "inputs": [
                {
                    "internalType": "address",
                    "name": "owner",
                    "type": "address"
                },
                {
                    "internalType": "address",
                    "name": "operator",
                    "type": "address"
                }
            ],
            "name": "isApprovedForAll",
            "outputs": [
                {
                    "internalType": "bool",
                    "name": "",
                    "type": "bool"
                }
            ],
            "stateMutability": "view",
            "type": "function"
        },
        {
            "inputs": [
                {
                    "internalType": "address",
                    "name": "recipient",
                    "type": "address"
                },
                {
                    "internalType": "string",
                    "name": "uri",
                    "type": "string"
                }
            ],
            "name": "mint",
            "outputs": [
                {
                    "internalType": "uint256",
                    "name": "",
                    "type": "uint256"
                }
            ],
            "stateMutability": "nonpayable",
            "type": "function"
        },
        {
            "inputs": [],
            "name": "name",
            "outputs": [
                {
                    "internalType": "string",
                    "name": "",
                    "type": "string"
                }
            ],
            "stateMutability": "view",
            "type": "function"
        },
        {
            "inputs": [],
            "name": "owner",
            "outputs": [
                {
                    "internalType": "address",
                    "name": "",
                    "type": "address"
                }
            ],
            "stateMutability": "view",
            "type": "function"
        },
        {
            "inputs": [
                {
                    "internalType": "uint256",
                    "name": "tokenId",
                    "type": "uint256"
                }
            ],
            "name": "ownerOf",
            "outputs": [
                {
                    "internalType": "address",
                    "name": "",
                    "type": "address"
                }
            ],
            "stateMutability": "view",
            "type": "function"
        },
        {
            "inputs": [],
            "name": "renounceOwnership",
            "outputs": [],
            "stateMutability": "nonpayable",
            "type": "function"
        },
        {
            "inputs": [
                {
                    "internalType": "address",
                    "name": "from",
                    "type": "address"
                },
                {
                    "internalType": "address",
                    "name": "to",
                    "type": "address"
                },
                {
                    "internalType": "uint256",
                    "name": "tokenId",
                    "type": "uint256"
                }
            ],
            "name": "safeTransferFrom",
            "outputs": [],
            "stateMutability": "nonpayable",
            "type": "function"
        },
        {
            "inputs": [
                {
                    "internalType": "address",
                    "name": "from",
                    "type": "address"
                },
                {
                    "internalType": "address",
                    "name": "to",
                    "type": "address"
                },
                {
                    "internalType": "uint256",
                    "name": "tokenId",
                    "type": "uint256"
                },
                {
                    "internalType": "bytes",
                    "name": "_data",
                    "type": "bytes"
                }
            ],
            "name": "safeTransferFrom",
            "outputs": [],
            "stateMutability": "nonpayable",
            "type": "function"
        },
        {
            "inputs": [
                {
                    "internalType": "address",
                    "name": "operator",
                    "type": "address"
                },
                {
                    "internalType": "bool",
                    "name": "approved",
                    "type": "bool"
                }
            ],
            "name": "setApprovalForAll",
            "outputs": [],
            "stateMutability": "nonpayable",
            "type": "function"
        },
        {
            "inputs": [
                {
                    "internalType": "bytes4",
                    "name": "interfaceId",
                    "type": "bytes4"
                }
            ],
            "name": "supportsInterface",
            "outputs": [
                {
                    "internalType": "bool",
                    "name": "",
                    "type": "bool"
                }
            ],
            "stateMutability": "view",
            "type": "function"
        },
        {
            "inputs": [],
            "name": "symbol",
            "outputs": [
                {
                    "internalType": "string",
                    "name": "",
                    "type": "string"
                }
            ],
            "stateMutability": "view",
            "type": "function"
        },
        {
            "inputs": [
                {
                    "internalType": "uint256",
                    "name": "tokenId",
                    "type": "uint256"
                }
            ],
            "name": "tokenURI",
            "outputs": [
                {
                    "internalType": "string",
                    "name": "",
                    "type": "string"
                }
            ],
            "stateMutability": "view",
            "type": "function"
        },
        {
            "inputs": [
                {
                    "internalType": "address",
                    "name": "from",
                    "type": "address"
                },
                {
                    "internalType": "address",
                    "name": "to",
                    "type": "address"
                },
                {
                    "internalType": "uint256",
                    "name": "tokenId",
                    "type": "uint256"
                }
            ],
            "name": "transferFrom",
            "outputs": [],
            "stateMutability": "nonpayable",
            "type": "function"
        },
        {
            "inputs": [
                {
                    "internalType": "address",
                    "name": "newOwner",
                    "type": "address"
                }
            ],
            "name": "transferOwnership",
            "outputs": [],
            "stateMutability": "nonpayable",
            "type": "function"
        }
    ],
    "transactionHash": "0x7ba2cbf3f01bad6ad6c4085016a2175ccf37f32a4d65af0b8fe989c7d451c42a",
    "args": [],
    "solcInputHash": "591f6a05ebf0220bc1b8e11b0508e3f4",
    "bytecode": "0x60806040523480156200001157600080fd5b50604080518082018252600e81526d14db585c9d0810dbdb9d1c9858dd60921b602080830191825283518085019094526002845261534360f01b9084015281519192916200006291600091620000f1565b50805162000078906001906020840190620000f1565b505050620000956200008f6200009b60201b60201c565b6200009f565b620001d4565b3390565b600680546001600160a01b038381166001600160a01b0319831681179093556040519116919082907f8be0079c531659141344cd1fd0a4f28419497f9722a3daafe3b4186f6b6457e090600090a35050565b828054620000ff9062000197565b90600052602060002090601f0160209004810192826200012357600085556200016e565b82601f106200013e57805160ff19168380011785556200016e565b828001600101855582156200016e579182015b828111156200016e57825182559160200191906001019062000151565b506200017c92915062000180565b5090565b5b808211156200017c576000815560010162000181565b600181811c90821680620001ac57607f821691505b60208210811415620001ce57634e487b7160e01b600052602260045260246000fd5b50919050565b6116dc80620001e46000396000f3fe608060405234801561001057600080fd5b50600436106101165760003560e01c8063715018a6116100a2578063b88d4fde11610071578063b88d4fde1461023b578063c87b56dd1461024e578063d0def52114610261578063e985e9c514610274578063f2fde38b146102b057600080fd5b8063715018a6146102075780638da5cb5b1461020f57806395d89b4114610220578063a22cb4651461022857600080fd5b806323b872dd116100e957806323b872dd146101985780632a5c792a146101ab57806342842e0e146101c05780636352211e146101d357806370a08231146101e657600080fd5b806301ffc9a71461011b57806306fdde0314610143578063081812fc14610158578063095ea7b314610183575b600080fd5b61012e6101293660046113de565b6102c3565b60405190151581526020015b60405180910390f35b61014b610315565b60405161013a9190611529565b61016b610166366004611416565b6103a7565b6040516001600160a01b03909116815260200161013a565b6101966101913660046113b5565b610441565b005b6101966101a6366004611268565b610557565b6101b3610588565b60405161013a91906114b6565b6101966101ce366004611268565b6106a9565b61016b6101e1366004611416565b6106c4565b6101f96101f436600461121c565b61073b565b60405190815260200161013a565b6101966107c2565b6006546001600160a01b031661016b565b61014b610828565b61019661023636600461131c565b610837565b6101966102493660046112a3565b6108fc565b61014b61025c366004611416565b610934565b6101f961026f366004611356565b6109f7565b61012e610282366004611236565b6001600160a01b03918216600090815260056020908152604080832093909416825291909152205460ff1690565b6101966102be36600461121c565b610a2e565b60006001600160e01b031982166380ac58cd60e01b14806102f457506001600160e01b03198216635b5e139f60e01b145b8061030f57506301ffc9a760e01b6001600160e01b03198316145b92915050565b6060600080546103249061160e565b80601f01602080910402602001604051908101604052809291908181526020018280546103509061160e565b801561039d5780601f106103725761010080835404028352916020019161039d565b820191906000526020600020905b81548152906001019060200180831161038057829003601f168201915b5050505050905090565b6000818152600260205260408120546001600160a01b03166104255760405162461bcd60e51b815260206004820152602c60248201527f4552433732313a20617070726f76656420717565727920666f72206e6f6e657860448201526b34b9ba32b73a103a37b5b2b760a11b60648201526084015b60405180910390fd5b506000908152600460205260409020546001600160a01b031690565b600061044c826106c4565b9050806001600160a01b0316836001600160a01b031614156104ba5760405162461bcd60e51b815260206004820152602160248201527f4552433732313a20617070726f76616c20746f2063757272656e74206f776e656044820152603960f91b606482015260840161041c565b336001600160a01b03821614806104d657506104d68133610282565b6105485760405162461bcd60e51b815260206004820152603860248201527f4552433732313a20617070726f76652063616c6c6572206973206e6f74206f7760448201527f6e6572206e6f7220617070726f76656420666f7220616c6c0000000000000000606482015260840161041c565b6105528383610af9565b505050565b6105613382610b67565b61057d5760405162461bcd60e51b815260040161041c9061158e565b610552838383610c5e565b6060600061059560075490565b90506000808267ffffffffffffffff8111156105c157634e487b7160e01b600052604160045260246000fd5b60405190808252806020026020018201604052801561060757816020015b6040805180820190915260008152606060208201528152602001906001900390816105df5790505b50905060005b838110156106a1576000838152600260205260409020546001600160a01b03161561068157600061063d84610934565b905060405180604001604052808581526020018281525083858151811061067457634e487b7160e01b600052603260045260246000fd5b6020026020010181905250505b8261068b81611649565b935050808061069990611649565b91505061060d565b509392505050565b610552838383604051806020016040528060008152506108fc565b6000818152600260205260408120546001600160a01b03168061030f5760405162461bcd60e51b815260206004820152602960248201527f4552433732313a206f776e657220717565727920666f72206e6f6e657869737460448201526832b73a103a37b5b2b760b91b606482015260840161041c565b60006001600160a01b0382166107a65760405162461bcd60e51b815260206004820152602a60248201527f4552433732313a2062616c616e636520717565727920666f7220746865207a65604482015269726f206164647265737360b01b606482015260840161041c565b506001600160a01b031660009081526003602052604090205490565b6006546001600160a01b0316331461081c5760405162461bcd60e51b815260206004820181905260248201527f4f776e61626c653a2063616c6c6572206973206e6f7420746865206f776e6572604482015260640161041c565b6108266000610dfe565b565b6060600180546103249061160e565b6001600160a01b0382163314156108905760405162461bcd60e51b815260206004820152601960248201527f4552433732313a20617070726f766520746f2063616c6c657200000000000000604482015260640161041c565b3360008181526005602090815260408083206001600160a01b03871680855290835292819020805460ff191686151590811790915590519081529192917f17307eab39ab6107e8899845ad3d59bd9653f200f220920489ca2b5937696c31910160405180910390a35050565b6109063383610b67565b6109225760405162461bcd60e51b815260040161041c9061158e565b61092e84848484610e50565b50505050565b6000818152600260205260409020546060906001600160a01b031661095857600080fd5b600082815260086020526040812080546109719061160e565b80601f016020809104026020016040519081016040528092919081815260200182805461099d9061160e565b80156109ea5780601f106109bf576101008083540402835291602001916109ea565b820191906000526020600020905b8154815290600101906020018083116109cd57829003601f168201915b5093979650505050505050565b600080610a0360075490565b9050610a0f8482610e83565b610a198184610fc5565b610a27600780546001019055565b9392505050565b6006546001600160a01b03163314610a885760405162461bcd60e51b815260206004820181905260248201527f4f776e61626c653a2063616c6c6572206973206e6f7420746865206f776e6572604482015260640161041c565b6001600160a01b038116610aed5760405162461bcd60e51b815260206004820152602660248201527f4f776e61626c653a206e6577206f776e657220697320746865207a65726f206160448201526564647265737360d01b606482015260840161041c565b610af681610dfe565b50565b600081815260046020526040902080546001600160a01b0319166001600160a01b0384169081179091558190610b2e826106c4565b6001600160a01b03167f8c5be1e5ebec7d5bd14f71427d1e84f3dd0314c0f7b2291e5b200ac8c7c3b92560405160405180910390a45050565b6000818152600260205260408120546001600160a01b0316610be05760405162461bcd60e51b815260206004820152602c60248201527f4552433732313a206f70657261746f7220717565727920666f72206e6f6e657860448201526b34b9ba32b73a103a37b5b2b760a11b606482015260840161041c565b6000610beb836106c4565b9050806001600160a01b0316846001600160a01b03161480610c265750836001600160a01b0316610c1b846103a7565b6001600160a01b0316145b80610c5657506001600160a01b0380821660009081526005602090815260408083209388168352929052205460ff165b949350505050565b826001600160a01b0316610c71826106c4565b6001600160a01b031614610cd95760405162461bcd60e51b815260206004820152602960248201527f4552433732313a207472616e73666572206f6620746f6b656e2074686174206960448201526839903737ba1037bbb760b91b606482015260840161041c565b6001600160a01b038216610d3b5760405162461bcd60e51b8152602060048201526024808201527f4552433732313a207472616e7366657220746f20746865207a65726f206164646044820152637265737360e01b606482015260840161041c565b610d46600082610af9565b6001600160a01b0383166000908152600360205260408120805460019290610d6f9084906115f7565b90915550506001600160a01b0382166000908152600360205260408120805460019290610d9d9084906115df565b909155505060008181526002602052604080822080546001600160a01b0319166001600160a01b0386811691821790925591518493918716917fddf252ad1be2c89b69c2b068fc378daa952ba7f163c4a11628f55a4df523b3ef91a4505050565b600680546001600160a01b038381166001600160a01b0319831681179093556040519116919082907f8be0079c531659141344cd1fd0a4f28419497f9722a3daafe3b4186f6b6457e090600090a35050565b610e5b848484610c5e565b610e6784848484610fe4565b61092e5760405162461bcd60e51b815260040161041c9061153c565b6001600160a01b038216610ed95760405162461bcd60e51b815260206004820181905260248201527f4552433732313a206d696e7420746f20746865207a65726f2061646472657373604482015260640161041c565b6000818152600260205260409020546001600160a01b031615610f3e5760405162461bcd60e51b815260206004820152601c60248201527f4552433732313a20746f6b656e20616c7265616479206d696e74656400000000604482015260640161041c565b6001600160a01b0382166000908152600360205260408120805460019290610f679084906115df565b909155505060008181526002602052604080822080546001600160a01b0319166001600160a01b03861690811790915590518392907fddf252ad1be2c89b69c2b068fc378daa952ba7f163c4a11628f55a4df523b3ef908290a45050565b60008281526008602090815260409091208251610552928401906110f1565b60006001600160a01b0384163b156110e657604051630a85bd0160e11b81526001600160a01b0385169063150b7a0290611028903390899088908890600401611479565b602060405180830381600087803b15801561104257600080fd5b505af1925050508015611072575060408051601f3d908101601f1916820190925261106f918101906113fa565b60015b6110cc573d8080156110a0576040519150601f19603f3d011682016040523d82523d6000602084013e6110a5565b606091505b5080516110c45760405162461bcd60e51b815260040161041c9061153c565b805181602001fd5b6001600160e01b031916630a85bd0160e11b149050610c56565b506001949350505050565b8280546110fd9061160e565b90600052602060002090601f01602090048101928261111f5760008555611165565b82601f1061113857805160ff1916838001178555611165565b82800160010185558215611165579182015b8281111561116557825182559160200191906001019061114a565b50611171929150611175565b5090565b5b808211156111715760008155600101611176565b600067ffffffffffffffff808411156111a5576111a561167a565b604051601f8501601f19908116603f011681019082821181831017156111cd576111cd61167a565b816040528093508581528686860111156111e657600080fd5b858560208301376000602087830101525050509392505050565b80356001600160a01b038116811461121757600080fd5b919050565b60006020828403121561122d578081fd5b610a2782611200565b60008060408385031215611248578081fd5b61125183611200565b915061125f60208401611200565b90509250929050565b60008060006060848603121561127c578081fd5b61128584611200565b925061129360208501611200565b9150604084013590509250925092565b600080600080608085870312156112b8578081fd5b6112c185611200565b93506112cf60208601611200565b925060408501359150606085013567ffffffffffffffff8111156112f1578182fd5b8501601f81018713611301578182fd5b6113108782356020840161118a565b91505092959194509250565b6000806040838503121561132e578182fd5b61133783611200565b91506020830135801515811461134b578182fd5b809150509250929050565b60008060408385031215611368578182fd5b61137183611200565b9150602083013567ffffffffffffffff81111561138c578182fd5b8301601f8101851361139c578182fd5b6113ab8582356020840161118a565b9150509250929050565b600080604083850312156113c7578182fd5b6113d083611200565b946020939093013593505050565b6000602082840312156113ef578081fd5b8135610a2781611690565b60006020828403121561140b578081fd5b8151610a2781611690565b600060208284031215611427578081fd5b5035919050565b60008151808452815b8181101561145357602081850181015186830182015201611437565b818111156114645782602083870101525b50601f01601f19169290920160200192915050565b6001600160a01b03858116825284166020820152604081018390526080606082018190526000906114ac9083018461142e565b9695505050505050565b60006020808301818452808551808352604092508286019150828160051b870101848801865b8381101561151b57888303603f190185528151805184528701518784018790526115088785018261142e565b95880195935050908601906001016114dc565b509098975050505050505050565b602081526000610a27602083018461142e565b60208082526032908201527f4552433732313a207472616e7366657220746f206e6f6e20455243373231526560408201527131b2b4bb32b91034b6b83632b6b2b73a32b960711b606082015260800190565b60208082526031908201527f4552433732313a207472616e736665722063616c6c6572206973206e6f74206f6040820152701ddb995c881b9bdc88185c1c1c9bdd9959607a1b606082015260800190565b600082198211156115f2576115f2611664565b500190565b60008282101561160957611609611664565b500390565b600181811c9082168061162257607f821691505b6020821081141561164357634e487b7160e01b600052602260045260246000fd5b50919050565b600060001982141561165d5761165d611664565b5060010190565b634e487b7160e01b600052601160045260246000fd5b634e487b7160e01b600052604160045260246000fd5b6001600160e01b031981168114610af657600080fdfea2646970667358221220abd70300a6bcd7a77913ad376710188e1ad33103c351bc42b70e4aca4ed68bf664736f6c63430008040033",
    "devdoc": {
        "kind": "dev",
        "methods": {
            "approve(address,uint256)": {
                "details": "See {IERC721-approve}."
            },
            "balanceOf(address)": {
                "details": "See {IERC721-balanceOf}."
            },
            "getApproved(uint256)": {
                "details": "See {IERC721-getApproved}."
            },
            "isApprovedForAll(address,address)": {
                "details": "See {IERC721-isApprovedForAll}."
            },
            "name()": {
                "details": "See {IERC721Metadata-name}."
            },
            "owner()": {
                "details": "Returns the address of the current owner."
            },
            "ownerOf(uint256)": {
                "details": "See {IERC721-ownerOf}."
            },
            "renounceOwnership()": {
                "details": "Leaves the contract without owner. It will not be possible to call `onlyOwner` functions anymore. Can only be called by the current owner. NOTE: Renouncing ownership will leave the contract without an owner, thereby removing any functionality that is only available to the owner."
            },
            "safeTransferFrom(address,address,uint256)": {
                "details": "See {IERC721-safeTransferFrom}."
            },
            "safeTransferFrom(address,address,uint256,bytes)": {
                "details": "See {IERC721-safeTransferFrom}."
            },
            "setApprovalForAll(address,bool)": {
                "details": "See {IERC721-setApprovalForAll}."
            },
            "supportsInterface(bytes4)": {
                "details": "See {IERC165-supportsInterface}."
            },
            "symbol()": {
                "details": "See {IERC721Metadata-symbol}."
            },
            "tokenURI(uint256)": {
                "details": "See {IERC721Metadata-tokenURI}."
            },
            "transferFrom(address,address,uint256)": {
                "details": "See {IERC721-transferFrom}."
            },
            "transferOwnership(address)": {
                "details": "Transfers ownership of the contract to a new account (`newOwner`). Can only be called by the current owner."
            }
        },
        "version": 1
    },
    "userdoc": {
        "kind": "user",
        "methods": {},
        "version": 1
    },
    "storageLayout": {
        "storage": [
            {
                "astId": 1454,
                "contract": "contracts/CreativeNFTv2.sol:CreativeNFTv2",
                "label": "_name",
                "offset": 0,
                "slot": "0",
                "type": "t_string_storage"
            },
            {
                "astId": 1456,
                "contract": "contracts/CreativeNFTv2.sol:CreativeNFTv2",
                "label": "_symbol",
                "offset": 0,
                "slot": "1",
                "type": "t_string_storage"
            },
            {
                "astId": 1460,
                "contract": "contracts/CreativeNFTv2.sol:CreativeNFTv2",
                "label": "_owners",
                "offset": 0,
                "slot": "2",
                "type": "t_mapping(t_uint256,t_address)"
            },
            {
                "astId": 1464,
                "contract": "contracts/CreativeNFTv2.sol:CreativeNFTv2",
                "label": "_balances",
                "offset": 0,
                "slot": "3",
                "type": "t_mapping(t_address,t_uint256)"
            },
            {
                "astId": 1468,
                "contract": "contracts/CreativeNFTv2.sol:CreativeNFTv2",
                "label": "_tokenApprovals",
                "offset": 0,
                "slot": "4",
                "type": "t_mapping(t_uint256,t_address)"
            },
            {
                "astId": 1474,
                "contract": "contracts/CreativeNFTv2.sol:CreativeNFTv2",
                "label": "_operatorApprovals",
                "offset": 0,
                "slot": "5",
                "type": "t_mapping(t_address,t_mapping(t_address,t_bool))"
            },
            {
                "astId": 591,
                "contract": "contracts/CreativeNFTv2.sol:CreativeNFTv2",
                "label": "_owner",
                "offset": 0,
                "slot": "6",
                "type": "t_address"
            },
            {
                "astId": 4353,
                "contract": "contracts/CreativeNFTv2.sol:CreativeNFTv2",
                "label": "_tokenIds",
                "offset": 0,
                "slot": "7",
                "type": "t_struct(Counter)3166_storage"
            },
            {
                "astId": 4357,
                "contract": "contracts/CreativeNFTv2.sol:CreativeNFTv2",
                "label": "_tokenURIs",
                "offset": 0,
                "slot": "8",
                "type": "t_mapping(t_uint256,t_string_storage)"
            }
        ],
        "types": {
            "t_address": {
                "encoding": "inplace",
                "label": "address",
                "numberOfBytes": "20"
            },
            "t_bool": {
                "encoding": "inplace",
                "label": "bool",
                "numberOfBytes": "1"
            },
            "t_mapping(t_address,t_bool)": {
                "encoding": "mapping",
                "key": "t_address",
                "label": "mapping(address => bool)",
                "numberOfBytes": "32",
                "value": "t_bool"
            },
            "t_mapping(t_address,t_mapping(t_address,t_bool))": {
                "encoding": "mapping",
                "key": "t_address",
                "label": "mapping(address => mapping(address => bool))",
                "numberOfBytes": "32",
                "value": "t_mapping(t_address,t_bool)"
            },
            "t_mapping(t_address,t_uint256)": {
                "encoding": "mapping",
                "key": "t_address",
                "label": "mapping(address => uint256)",
                "numberOfBytes": "32",
                "value": "t_uint256"
            },
            "t_mapping(t_uint256,t_address)": {
                "encoding": "mapping",
                "key": "t_uint256",
                "label": "mapping(uint256 => address)",
                "numberOfBytes": "32",
                "value": "t_address"
            },
            "t_mapping(t_uint256,t_string_storage)": {
                "encoding": "mapping",
                "key": "t_uint256",
                "label": "mapping(uint256 => string)",
                "numberOfBytes": "32",
                "value": "t_string_storage"
            },
            "t_string_storage": {
                "encoding": "bytes",
                "label": "string",
                "numberOfBytes": "32"
            },
            "t_struct(Counter)3166_storage": {
                "encoding": "inplace",
                "label": "struct Counters.Counter",
                "members": [
                    {
                        "astId": 3165,
                        "contract": "contracts/CreativeNFTv2.sol:CreativeNFTv2",
                        "label": "_value",
                        "offset": 0,
                        "slot": "0",
                        "type": "t_uint256"
                    }
                ],
                "numberOfBytes": "32"
            },
            "t_uint256": {
                "encoding": "inplace",
                "label": "uint256",
                "numberOfBytes": "32"
            }
        }
    }
}